{
  "contractName": "TodoList",
  "abi": [
    {
      "inputs": [],
      "payable": false,
      "stateMutability": "nonpayable",
      "type": "constructor"
    },
    {
      "constant": true,
      "inputs": [],
      "name": "last_completed_migration",
      "outputs": [
        {
          "internalType": "uint256",
          "name": "",
          "type": "uint256"
        }
      ],
      "payable": false,
      "stateMutability": "view",
      "type": "function"
    },
    {
      "constant": true,
      "inputs": [],
      "name": "owner",
      "outputs": [
        {
          "internalType": "address",
          "name": "",
          "type": "address"
        }
      ],
      "payable": false,
      "stateMutability": "view",
      "type": "function"
    },
    {
      "constant": true,
      "inputs": [],
      "name": "taskCount",
      "outputs": [
        {
          "internalType": "uint256",
          "name": "",
          "type": "uint256"
        }
      ],
      "payable": false,
      "stateMutability": "view",
      "type": "function"
    },
    {
      "constant": true,
      "inputs": [
        {
          "internalType": "uint256",
          "name": "",
          "type": "uint256"
        }
      ],
      "name": "tasks",
      "outputs": [
        {
          "internalType": "uint256",
          "name": "id",
          "type": "uint256"
        },
        {
          "internalType": "string",
          "name": "content",
          "type": "string"
        },
        {
          "internalType": "bool",
          "name": "completed",
          "type": "bool"
        }
      ],
      "payable": false,
      "stateMutability": "view",
      "type": "function"
    },
    {
      "constant": false,
      "inputs": [
        {
          "internalType": "string",
          "name": "_content",
          "type": "string"
        }
      ],
      "name": "createTask",
      "outputs": [],
      "payable": false,
      "stateMutability": "nonpayable",
      "type": "function"
    },
    {
      "constant": false,
      "inputs": [
        {
          "internalType": "uint256",
          "name": "completed",
          "type": "uint256"
        }
      ],
      "name": "setCompleted",
      "outputs": [],
      "payable": false,
      "stateMutability": "nonpayable",
      "type": "function"
    }
  ],
  "bytecode": "0x6080604052600060025534801561001557600080fd5b50600080546001600160a01b0319163317905560408051808201909152601c81527f636865636b206f75742064617070756e69766572736974792e636f6d00000000602082015261006e906001600160e01b0361007316565b61017e565b60028054600190810191829055604080516060810182528381526020808201868152600083850181905295865260038252929094208151815591518051919492936100c493908501929101906100e3565b50604091909101516002909101805460ff191691151591909117905550565b828054600181600116156101000203166002900490600052602060002090601f016020900481019282601f1061012457805160ff1916838001178555610151565b82800160010185558215610151579182015b82811115610151578251825591602001919060010190610136565b5061015d929150610161565b5090565b61017b91905b8082111561015d5760008155600101610167565b90565b6104408061018d6000396000f3fe608060405234801561001057600080fd5b50600436106100625760003560e01c8063111002aa14610067578063445df0ac1461010f5780638d977672146101295780638da5cb5b146101d0578063b6cb58a5146101f4578063fdacd576146101fc575b600080fd5b61010d6004803603602081101561007d57600080fd5b81019060208101813564010000000081111561009857600080fd5b8201836020820111156100aa57600080fd5b803590602001918460018302840111640100000000831117156100cc57600080fd5b91908080601f016020809104026020016040519081016040528093929190818152602001838380828437600092019190915250929550610219945050505050565b005b610117610289565b60408051918252519081900360200190f35b6101466004803603602081101561013f57600080fd5b503561028f565b604051808481526020018060200183151515158152602001828103825284818151815260200191508051906020019080838360005b8381101561019357818101518382015260200161017b565b50505050905090810190601f1680156101c05780820380516001836020036101000a031916815260200191505b5094505050505060405180910390f35b6101d861033f565b604080516001600160a01b039092168252519081900360200190f35b61011761034e565b61010d6004803603602081101561021257600080fd5b5035610354565b600280546001908101918290556040805160608101825283815260208082018681526000838501819052958652600382529290942081518155915180519194929361026a9390850192910190610370565b50604091909101516002909101805460ff191691151591909117905550565b60015481565b6003602090815260009182526040918290208054600180830180548651600293821615610100026000190190911692909204601f81018690048602830186019096528582529194929390929083018282801561032c5780601f106103015761010080835404028352916020019161032c565b820191906000526020600020905b81548152906001019060200180831161030f57829003601f168201915b5050506002909301549192505060ff1683565b6000546001600160a01b031681565b60025481565b6000546001600160a01b031633141561036d5760018190555b50565b828054600181600116156101000203166002900490600052602060002090601f016020900481019282601f106103b157805160ff19168380011785556103de565b828001600101855582156103de579182015b828111156103de5782518255916020019190600101906103c3565b506103ea9291506103ee565b5090565b61040891905b808211156103ea57600081556001016103f4565b9056fea265627a7a72315820e0533d881ef08d434c0c29ec7bc9d38f0b38e82c417fa73f17f6ffa06e4f13e564736f6c63430005100032",
  "source": "// SPDX-License-Identifier: MIT\npragma solidity >=0.4.21 <0.7.0;\n\ncontract TodoList {\n    address public owner;\n    uint256 public last_completed_migration;\n    uint256 public taskCount = 0;\n\n    struct Task {\n        uint256 id;\n        string content;\n        bool completed;\n    }\n\n    mapping(uint256 => Task) public tasks;\n\n    function createTask(string memory _content) public {\n        taskCount++;\n        tasks[taskCount] = Task(taskCount, _content, false);\n    }\n\n    constructor() public {\n        owner = msg.sender;\n        createTask(\"check out dappuniversity.com\");\n    }\n\n    modifier restricted() {\n        if (msg.sender == owner) _;\n    }\n\n    function setCompleted(uint256 completed) public restricted {\n        last_completed_migration = completed;\n    }\n}\n",
  "sourcePath": "/Users/fab/workspace/initethereumsoliditytodo/contracts/TodoList.sol",
  "compiler": {
    "name": "solc",
    "version": "0.5.16+commit.9c3226ce.Emscripten.clang"
  },
  "schemaVersion": "3.2.2",
  "updatedAt": "2020-07-17T00:42:20.642Z",
  "networkType": "ethereum",
  "devdoc": {
    "methods": {}
  },
  "userdoc": {
    "methods": {}
  }
}